{"abi":[{"type":"receive","stateMutability":"payable"},{"type":"function","name":"swapEtherToToken","inputs":[{"name":"token","type":"address","internalType":"address"},{"name":"minAmount","type":"uint256","internalType":"uint256"}],"outputs":[{"name":"","type":"uint256","internalType":"uint256"}],"stateMutability":"payable"},{"type":"function","name":"swapExactInputSingleHop","inputs":[{"name":"amountIn","type":"uint256","internalType":"uint256"},{"name":"amountOutMin","type":"uint256","internalType":"uint256"}],"outputs":[],"stateMutability":"nonpayable"},{"type":"function","name":"swapExactOutputSingleHop","inputs":[{"name":"amountOut","type":"uint256","internalType":"uint256"},{"name":"amountInMax","type":"uint256","internalType":"uint256"}],"outputs":[],"stateMutability":"nonpayable"}],"bytecode":{"object":"0x6080604052348015600f57600080fd5b506108e28061001f6000396000f3fe6080604052600436106100385760003560e01c80637a2a045614610044578063c9eb5e5a14610069578063e4eaab961461008b57600080fd5b3661003f57005b600080fd5b610057610052366004610790565b6100ab565b60405190815260200160405180910390f35b34801561007557600080fd5b506100896100843660046107c8565b610280565b005b34801561009757600080fd5b506100896100a63660046107c8565b6105a6565b600073fff9976782d46cc05630d1f6ebab18b2324d6b146001600160a01b031663d0e30db0346040518263ffffffff1660e01b81526004016000604051808303818588803b1580156100fc57600080fd5b505af1158015610110573d6000803e3d6000fd5b505060405163095ea7b360e01b8152733bfa4769fb09eefc5a80d6e87c3b9c650f7ae48e600482015234602482015273fff9976782d46cc05630d1f6ebab18b2324d6b14935063095ea7b3925060440190506020604051808303816000875af1158015610181573d6000803e3d6000fd5b505050506040513d601f19601f820116820180604052508101906101a591906107ea565b506040805160e08101825273fff9976782d46cc05630d1f6ebab18b2324d6b1481526001600160a01b0385166020820152610bb88183015233606082015234608082015260a08101849052600060c0820181905291516304e45aaf60e01b8152909190733bfa4769fb09eefc5a80d6e87c3b9c650f7ae48e906304e45aaf90610232908590600401610813565b6020604051808303816000875af1158015610251573d6000803e3d6000fd5b505050506040513d601f19601f820116820180604052508101906102759190610872565b925050505b92915050565b6040516323b872dd60e01b81523360048201523060248201526044810182905273fff9976782d46cc05630d1f6ebab18b2324d6b14906323b872dd906064016020604051808303816000875af11580156102de573d6000803e3d6000fd5b505050506040513d601f19601f8201168201806040525081019061030291906107ea565b5060405163095ea7b360e01b8152733bfa4769fb09eefc5a80d6e87c3b9c650f7ae48e60048201526024810182905273fff9976782d46cc05630d1f6ebab18b2324d6b149063095ea7b3906044016020604051808303816000875af115801561036f573d6000803e3d6000fd5b505050506040513d601f19601f8201168201806040525081019061039391906107ea565b506040805160e08101825273fff9976782d46cc05630d1f6ebab18b2324d6b1481527368194a729c2450ad26072b3d33adacbcef39d5746020820152610bb8818301523360608201526080810184905260a08101839052600060c082018190529151635023b4df60e01b8152909190733bfa4769fb09eefc5a80d6e87c3b9c650f7ae48e90635023b4df9061042c908590600401610813565b6020604051808303816000875af115801561044b573d6000803e3d6000fd5b505050506040513d601f19601f8201168201806040525081019061046f9190610872565b9050828110156105a05760405163095ea7b360e01b8152733bfa4769fb09eefc5a80d6e87c3b9c650f7ae48e60048201526000602482015273fff9976782d46cc05630d1f6ebab18b2324d6b149063095ea7b3906044016020604051808303816000875af11580156104e5573d6000803e3d6000fd5b505050506040513d601f19601f8201168201806040525081019061050991906107ea565b5073fff9976782d46cc05630d1f6ebab18b2324d6b1463a9059cbb3361052f848761088b565b6040516001600160e01b031960e085901b1681526001600160a01b03909216600483015260248201526044016020604051808303816000875af115801561057a573d6000803e3d6000fd5b505050506040513d601f19601f8201168201806040525081019061059e91906107ea565b505b50505050565b6040516323b872dd60e01b81523360048201523060248201526044810183905273fff9976782d46cc05630d1f6ebab18b2324d6b14906323b872dd906064016020604051808303816000875af1158015610604573d6000803e3d6000fd5b505050506040513d601f19601f8201168201806040525081019061062891906107ea565b5060405163095ea7b360e01b8152733bfa4769fb09eefc5a80d6e87c3b9c650f7ae48e60048201526024810183905273fff9976782d46cc05630d1f6ebab18b2324d6b149063095ea7b3906044016020604051808303816000875af1158015610695573d6000803e3d6000fd5b505050506040513d601f19601f820116820180604052508101906106b991906107ea565b506040805160e08101825273fff9976782d46cc05630d1f6ebab18b2324d6b1481527368194a729c2450ad26072b3d33adacbcef39d5746020820152610bb8818301523360608201526080810184905260a08101839052600060c082015290516304e45aaf60e01b8152733bfa4769fb09eefc5a80d6e87c3b9c650f7ae48e906304e45aaf9061074d908490600401610813565b6020604051808303816000875af115801561076c573d6000803e3d6000fd5b505050506040513d601f19601f820116820180604052508101906105a09190610872565b600080604083850312156107a357600080fd5b82356001600160a01b03811681146107ba57600080fd5b946020939093013593505050565b600080604083850312156107db57600080fd5b50508035926020909101359150565b6000602082840312156107fc57600080fd5b8151801515811461080c57600080fd5b9392505050565b60e0810161027a828480516001600160a01b03908116835260208083015182169084015260408083015162ffffff16908401526060808301518216908401526080808301519084015260a0828101519084015260c09182015116910152565b60006020828403121561088457600080fd5b5051919050565b8181038181111561027a57634e487b7160e01b600052601160045260246000fdfea2646970667358221220bcb5bee4694099daed18c76ff8a1212cbcd9914059fe356de652a2b6327d1c5564736f6c63430008190033","linkReferences":{}},"methodIdentifiers":{"swapEtherToToken(address,uint256)":"7a2a0456","swapExactInputSingleHop(uint256,uint256)":"e4eaab96","swapExactOutputSingleHop(uint256,uint256)":"c9eb5e5a"},"id":29}